:030000000201C931
:0C01C900787FE4F6D8FD75812702021053
:100529003F065B4F666D7D077F6F40BF86DBCFE679
:10053900EDFD87FFEF00FEFDFBF7EFDFBF7F3031F9
:1005490032333435363738392D0054656D700041F2
:100559006C61726D3A006F70656E2000636C6F7329
:0205690065002B
:10064100081000000A00000A000002080000020D64
:100651000005010F00C10002180000010B00010A92
:010661000098
:10012F00758921758C3C758AB0758DFD758CFDC2F6
:10013F009FD29ED29CD2AFD2A8D288D2A9D28CD233
:10014F008ED2AC1206DA1205CE12047DAE08AF09BC
:10015F007C0E7D101204D4ED4C70051203608011DB
:10016F00E50E450D700BE519640245187003120377
:10017F00C520003DE519640145187006AF0EAE0DA0
:10018F00802AAE08AF097C007D0A1204D4C3ED9417
:10019F0008EC94004012D3ED9409EC94005009AF91
:1001AF001BAE1A12042680A1AF09AE0812002680DA
:0A01BF0098AF1BAE1A120255808F94
:10036000E4F521F522F523F524F525F526AE08AFB1
:10037000097C0E7D101204D48E258F26E5261526C5
:10038000AE25700215254E6039E4F521F522C3E54E
:10039000229402E521940050E3B2A7E4F523F5246A
:1003A000AF09AE081200260524E52470020523C318
:1003B0009414E523940040E80522E52270D005213D
:0403C00080CCD2A774
:0103C4002216
:1003C500E4F521F522F523F524F525752605E52621
:1003D5001526AE25700215254E6039E4F521F52266
:1003E500C3E5229402E521940050E3B2A7E4F52386
:1003F500F524AF0EAE0D1200260524E52470020586
:1004050023C39414E523940040E80522E52270D027
:10041500052180CCD2A7E4F518F519F50D750E0563
:0104250022B4
:100426008E218F22900544E493F590AE21AF227C75
:10043600007D0A1204D474292FF58274053E120534
:10044600A47590FF900545E493F590AE21AF227C0C
:10045600007D0A1204D474342DF58274053C12050D
:10046600A47590FF900546E493F590E50C90052958
:070476001205A77590FF229B
:0A05A400F583E493F5807F027E00EA
:1005AE00EF1FAA0670011E4A6015E4FCFDC3ED9410
:0F05BE0071EC6480948050E80DBD00010C80EE5C
:0105CD00220B
:0A000E00EFD3940040031F80F72297
:04002600AB07AA0674
:10002A00E4F527D3EB9400EA94005003E4FAFB7C4E
:10003A000E7D10AF03AE021204D47C007D0A1204B6
:10004A00D48F107C0E7D10AF03AE021204D47C0054
:10005A007D0A1204D48D117C0E7D10AF03AE0212FC
:10006A0004D47E007F3CCFCDCFCECCCE1204D47C3C
:10007A00007D0A1204D48F137C0E7D10AF03AE02EA
:10008A001204D47E007F3CCFCDCFCECCCE1204D486
:10009A007C007D0A1204D48D147C007D3CAF03AE33
:1000AA00021204D47E007F0ACFCDCFCECCCE12046A
:1000BA00D48F16AE02AF037C007D3C1204D47E00BE
:1000CA007F0ACFCDCFCECCCE1204D48D17300022EA
:1000DA007FC8120684E4F52774102527F8E69005F0
:1000EA004793FF1206A10527C3E527648094884039
:1000FA00E722E4F527AF27EF3395E0FE743F2FF5AB
:10010A008274053EF583E493F59074102527F8E68A
:10011A009005291205A70527C3E52764809488401E
:04012A00D47590FFF9
:01012E0022AE
:030003000202DD19
:0D02DD00C0E0C0D075D000C004C005C0074F
:1002EA00E5A05470FFE4FDFCEF24F0603A24F060CE
:1002FA002E24F0602624F0601B24F0600E24F07097
:10030A002C74102DFD740E3CFC8022743C2DFDE4EF
:10031A003CFC80190DBD00010C8012B200800E75E4
:10032A0018007519018006751800751902E5196417
:10033A00014518700CED250EF50EEC350DF50D8006
:0B034A000AED2509F509EC3508F5085F
:0B035500D007D005D004D0D0D0E0329B
:03000B0002056B80
:10056B00C0E0C0D075D000C007758C3C758AB0AFA9
:10057B000F050FEFB4141B750F000509E509700289
:10058B000508E519640245187008E50E150E700292
:09059B00150DD007D0D0D0E032DC
:030023000205F7DC
:0B05F700C0E0C0D075D000C000C007FD
:10060200E4FF3098FDC29874102FF8A6990FBF0826
:01061200F1F6
:09061300D007D000D0D0D0E032B5
:10066300E4FED2A37F0812000EC2A37F5012000E35
:10067300D2A37F0512000EA2A3E433FE7F1402006F
:010683000E68
:10061C00E4FD7E08D2A37F0112000EC2A3EDC3132A
:10062C00FDD2A330A3034305807F0412000EDEE449
:04063C00AF057E0088
:010640002297
:0206BE00AE0785
:1006C0007D08C2A3EE1392A37F0512000ED2A3EE03
:0A06D000C313FEDDED7F0402000EEF
:10047D001206637FCC1206BE7F441206BE7F7D122C
:10048D00000E1206637FCC1206BE7FBE1206BE1290
:10049D00061C8F0B12061C8F0AE50BC4540FFD7C36
:1004AD0000EF75F010A4AEF02DF51BEC3EF51AE53E
:1004BD000B540F75F00AA4FFE5F0C4F854F0C8EF23
:0704CD00C4540F48F50C2296
:10068400C2A28F807F057E001205AED2A07F057EB8
:0D069400001205AEC2A07F057E000205AE7B
:1006A100D2A28F807F057E001205AED2A07F057E8B
:0D06B100001205AEC2A07F057E000205AE5E
:1006DA00C2A0C2A17F381206847F0C1206847F064C
:0806EA001206847F0102068460
:040255008E218F2245
:100259007F8B120684E4F525F526E5196402451815
:100269007007E52690055F8005E52690056593FFF3
:100279001206A10526E52670020525C39405E52584
:10028900940040D6AE21AF227C007D0A1204D48F9F
:1002990082AE21AF227C007D0A1204D48C238D24E6
:1002A9007FC0120684AF82EF90054793FF1206A123
:1002B900E52493FF1206A17F2E1206A1E50C93FFF8
:1002C9001206A17F5E1206A17F431206A1AF09AEF5
:0402D90008020026F1
:1005CE007F80120684E4FBEB90055393FF1206A185
:1005DE000BBB04F37F85120684E4FBEB9005589366
:0805EE00FF1206A10BBB06F38E
:0105F60022E2
:1001D50002012FE493A3F8E493A34003F68001F210
:1001E50008DFF48029E493A3F85407240CC8C3332B
:1001F500C4540F4420C8834004F456800146F6DFFA
:10020500E4800B0102040810204080900641E47E42
:10021500019360BCA3FF543F30E509541FFEE493EE
:10022500A360010ECF54C025E060A840B8E493A3B5
:10023500FAE493A3F8E493A3C8C582C8CAC583CAE0
:10024500F0A3C8C582C8CAC583CADFE9DEE780BE98
:010662000097
:1004D400BC000BBE0029EF8DF084FFADF022E4CC0C
:1004E400F875F008EF2FFFEE33FEEC33FCEE9DECD5
:1004F400984005FCEE9DFE0FD5F0E9E4CEFD22ED1B
:10050400F8F5F0EE8420D21CFEADF075F008EF2F64
:10051400FFED33FD4007985006D5F0F222C398FD55
:050524000FD5F0EA22F2
:00000001FF
